:020000040800F2
:10000000E0140020BD2300086D1000086F100008E8
:1000100073100008771000087B1000080000000033
:100020000000000000000000000000007F10000839
:1000300081100008000000008310000885100008EF
:10004000D7230008D7230008D7230008ED1F000896
:10005000D7230008D7230008D7230008D723000898
:10006000D7230008D7230008D7230008D723000888
:10007000D7230008D7230008D7230008D723000878
:10008000D7230008D7230008D7230008D723000868
:10009000D7230008D7230008D7230008D723000858
:1000A000D7230008D7230008D7230008D723000848
:1000B000D7230008D723000851510008D723000890
:1000C000D7230008D7230008D7230008D723000828
:1000D000D723000833230008D7230008D7230008BC
:1000E000D7230008D7230008D7230008D723000808
:1000F000D7230008D7230008D7230008D7230008F8
:10010000D7230008D7230008D7230008D7230008E7
:10011000D7230008D7230008D7230008D7230008D7
:10012000D7230008D7230008D7230008D7230008C7
:1001300000F002F800F06BF80AA090E8000C82448E
:100140008344AAF10107DA4501D100F060F8AFF26B
:10015000090EBAE80F0013F0010F18BFFB1A43F0A5
:100160000103184790780000B07800000A444FF06F
:10017000000C10F8013B13F0070408BF10F8014B06
:100180001D1108BF10F8015B641E05D010F8016B4B
:10019000641E01F8016BF9D113F0080F1EBF10F8AF
:1001A000014BAD1C0C1B09D16D1E58BF01F801CBD2
:1001B000FAD505E014F8016B01F8016B6D1EF9D555
:1001C0009142D6D37047000000230024002500266A
:1001D000103A28BF78C1FBD8520728BF30C148BFAA
:1001E0000B607047642905F08D85752905F08A85B7
:1001F000782905F0C385632905F01787732905F071
:100200001C87002070471FB51FBD10B510BD05F03D
:1002100047FF1146FFF7F7FF00F0DCFE05F065FF32
:1002200003B4FFF7F2FF03BC02F028F870B50546EF
:100230000E46144608E028466A1CD5B20122314613
:1002400001F0B7F8601EC4B2002CF4DC70BD0146AA
:10025000A1F668320A2392FBF3F2D0B2704770B570
:1002600005460E4614467DB10BE00120FE490860AC
:10027000304601F0D6FF0020FC49C1F88C01601E19
:10028000C4B2002CF1DC09E00120F74908603046D7
:1002900001F0C7FF0020F549C1F88C0170BD0129AC
:1002A00025D118B1022801D0042806D1F04A125CE9
:1002B000182A02D10022EE4B1A54012803D0032839
:1002C00001D0052806D1EA4A125C3C2A02D100225C
:1002D000E74B1A54062803D0072801D0082806D176
:1002E000E34A125C3C2A02D10022E14B1A5429BB9A
:1002F00018B1022801D0042806D1DD4A125CFF2A79
:1003000002D11722DA4B1A54012803D0032801D056
:10031000052806D1D64A125CFF2A02D13B22D44BD3
:100320001A54062803D0072801D0082806D1D04A3D
:10033000125CFF2A02D13B22CD4B1A547047A0B960
:100340000021CC4A11700CE0C949CA4A1278895C74
:10035000C94AC84B1B78D154C6490978491CC54ABB
:100360001170C44909780C29EEDB012814D1002151
:10037000C04A11700CE0C049BE4A1278895CBC4A80
:10038000BC4B1B78D154BB490978491CB94A117040
:10039000B84909780C29EEDB704710B51823B7A2CD
:1003A0001021184601F028F900F0AFFF4FF4E1608A
:1003B00001F037FF4FF4E16001F033FF00F0E4FF9C
:1003C00010BD08B51023AFA20021084601F014F9B2
:1003D0001023B0A21946002001F00EF91023AEA29E
:1003E0002021002001F008F91023ACA230210020C8
:1003F00001F002F9102000909D480278022310219C
:10040000182001F0AFF8102000909948427802239C
:100410001021302001F0A6F8102000909448827836
:1004200002232021182001F09DF810200090904810
:10043000C27802232021302001F094F8102000908F
:100440008B48027902233021182001F08BF810200C
:1004500000908748427902233021084601F082F853
:10046000102000908248827902231021482001F058
:1004700079F8102000907E48C2790223202148207C
:1004800001F070F8102000907948027A02233021A0
:10049000482001F067F87648407A814901EB8002F4
:1004A00010231946682001F0A7F87148807A7C492A
:1004B00001EB800210232021682001F09DF86C4898
:1004C000C07A774901EB800210233021682001F0C7
:1004D00093F8102373A21946282001F08DF81023F9
:1004E00070A22021282001F087F810236DA230216E
:1004F000282001F081F810236BA21946582001F042
:100500007BF8102368A22021582001F075F81023F1
:1005100065A23021582001F06FF8644800780C285B
:100520004FD2DFE800F0060C12181E242A30363CA9
:100530004248102220211820FFF778FE41E01022C7
:1005400020213020FFF772FE3BE0102230211820DE
:10055000FFF76CFE35E0102230210846FFF766FEFB
:100560002FE010223F211820FFF760FE29E0102223
:100570003F213020FFF75AFE23E01022202148209F
:10058000FFF754FE1DE0102230214820FFF74EFEF9
:1005900017E010223F214820FFF748FE11E0172204
:1005A00020216820FFF742FE0BE01722302168204F
:1005B000FFF73CFE05E017223F216820FFF736FEDB
:1005C00000BF00BF08BD10B53948007820B1002039
:1005D0003749087000F0D8FE102336A20021082009
:1005E00001F00AF8102337A21946002001F004F8A0
:1005F000102339A23021002000F0FEFF00F085FE1C
:1006000010BDF8B507460C4615460120164908608E
:10061000642001F006FE00201449C1F88C0164201A
:1006200001F0FFFD012010490860642001F0F9FD90
:1006300000200E49C1F88C012C488678BAE01C488D
:10064000007820B100201A49087000F09DFE1023A8
:1006500027A21946184600F0CFFF24488078284981
:100660000978884275D04DE08C012142000021427A
:1006700022000020100000202E00002057656C632F
:100680006F6D6500616C61726D2074696D652073BA
:1006900065743A00312F0000322F0000332F000024
:1006A000020000203A000000730000000E0000204D
:1006B00000000020446F20796F752077616E7420F0
:1006C000746F2000736176652074686520636861CB
:1006D0006E67653F000000006E6F20202020202004
:1006E000202020202079657300000000AC05002048
:1006F000696E6A656374696E672E2E2E00000000B5
:1007000011000020F9488078F94908701023F9A2F7
:100710002421142000F070FF18200090F348027884
:1007200002232021142000F01DFF18200090EF4824
:10073000427802232021342000F014FF182000907A
:10074000EA48827802232021542000F00BFF00F0B9
:10075000DCFD284601F0A0F9E4488078801BA04227
:1007600005DA1021E64801F03CFF012822D11021D2
:10077000E34801F036FFB8B10120E249086001F01A
:1007800085FA0F20E049087007E00A2001F001FA1D
:10079000DD480078401EDC490870DB4800780028FE
:1007A000F3DC0020D749086001F070FA0120D74936
:1007B000087000E043E700BF0120D24908606420D0
:1007C00001F02FFD0020D249C1F88C01642001F016
:1007D00028FD0120CB490860642001F022FD0020A3
:1007E000CB49C1F88C0100F0CFFDF8BD10B5C94868
:1007F0000078BE490978884215D1C6484078BB497F
:10080000497888420FD1B948807818B1B7488078C4
:10081000012808D1BF48407A28B1BE4881792822F2
:100820000020FFF7EEFEBB488078B0490978884287
:1008300015D1B848C078AD49497888420FD1AB4846
:10084000807818B1A9488078012808D1B148807A09
:1008500028B1B048C17928220120FFF7D2FEAD4867
:100860000079A2490978884215D1AA4840799F4960
:10087000497888420FD19D48807818B19B4880788C
:10088000012808D1A348C07A28B1A248017A2822B9
:100890000220FFF7B6FE10BD08B594488078944951
:1008A000097888427ED09148807891490870102359
:1008B00099A20021082000F09FFE10238DA2242180
:1008C000142000F099FE10200090884882880423AC
:1008D0000021082000F046FE102000908348827915
:1008E00002230021302000F03DFE102000907F48C0
:1008F000C27902230021482000F034FE7B48007AB0
:10090000072836D2DFE800F0040B121920272E004A
:10091000102384A21946202000F06EFE29E0102347
:1009200083A21946202000F067FE22E0102383A254
:100930001946202000F060FE1BE0102382A2194619
:10094000202000F059FE14E0102382A21946202036
:1009500000F052FE0DE0102381A21946202000F085
:100960004BFE06E0102381A21946202000F044FE31
:1009700000BF00BF182000905C48027802232021AD
:10098000142000F0EFFD1820009058484278022310
:100990002021342000F0E6FD182000905348827892
:1009A000022300E014E02021542000F0DBFD1020A1
:1009B00003230090704802780021602000F0D2FDEF
:1009C00010236EA20021782000F016FE00F09DFC9E
:1009D00008BD10B5002000F0B9FF69490880012169
:1009E00067480088401E674A115410BD08B509E1E8
:1009F0004648007838B100204449087000F0C4FC33
:100A00000120FFF79CFCFFF7DCFC00F07EFC0020DF
:100A10003D4908700CE05B483B490978405C5A4905
:100A2000394A1278885438480078401C3649087092
:100A3000354800780428EEDB002000F087FF50499D
:100A4000088008460088401E4E49085C401CC1B220
:100A50004B480088401E4B4A1154494800880428DE
:100A600019D100202849087009E000214548264A8C
:100A70001278815424480078401C23490870224889
:100A800000780428F1DB0120204908703F490870F4
:100A900000F07AFCBBE03B4800783B490978401AFB
:100AA00001280ADB3A480078401C3949087008469A
:100AB00000780C2801D10020087032484078324973
:100AC0004978401A012876DB31480078092807D098
:100AD0002F4800780A2803D02D4800780B285BD1D6
:100AE00001212C482A4A1278815464E0AC05002088
:100AF000110000202020203A2020203A2020200031
:100B0000000801408C01214210000020000000205C
:100B1000000021422E000020202020202F20202F06
:100B2000202000002053756E6461792000000000D1
:100B3000204D6F6E6461792000000000547565736C
:100B400064617920000000005765646E657364611C
:100B500079000000546875727364617920000000A8
:100B60002046726964617920000000005361747549
:100B7000726461790000000016000020250000006A
:100B8000180000201A0000201E0000200100002094
:100B90000E00002022000020F848F9490978405C46
:100BA000401CC1B2F548F64A127881540121F4483C
:100BB0000078FFF774FBF3488078F3498978401A8E
:100BC00001281FDBEE480078092807D0EC480078A0
:100BD0000A2803D0EA4800780B2805D10020E7490D
:100BE000E74A127888540DE0E448E5490978405C0A
:100BF000401EE249E24A127888540021E048007819
:100C0000FFF74DFBDF48007800287FF4F1AE00BF0E
:100C100026E0FFF7D8FC002000F098FEDB490870C2
:100C20000846007801280FD10020D949087001201A
:100C3000D84908700020FFF782FB0C22D649D7481C
:100C400001F01DFA00F0A0FBD0480078042807D17D
:100C50000020CF4908700120CE49087000F094FBB5
:100C6000CB4800780028D4D166E0CD488078CD49C3
:100C70000978884226D0CA488078CA490870182066
:100C80000090C748027802232021142000F06AFC5B
:100C900018200090C248427802232021342000F01E
:100CA00061FC18200090BE48827802232021542045
:100CB00000F058FC1823BCA22021742000F09CFCFA
:100CC00000F023FB0A2000F064FF002000F03EFE4D
:100CD000032805D02021B54801F083FC01282BD141
:100CE0002021B24801F07DFC012816D1B0490860EE
:100CF00000F0CCFF0D20AF49087007E00A2000F09B
:100D0000CBFEAC480078401EAA490870A94800787C
:100D10000028F3DC0020A649086000F0B7FF00209F
:100D2000984988701823AFF2CC122021742000F06B
:100D300063FC00F0EAFA03E092488078002894D13E
:100D400000BF65E09648807896490978884226D0A9
:100D50009348807893490870182000909048027852
:100D600002232021142000F0FDFB182000908C4865
:100D7000427802232021342000F0F4FB1820009058
:100D80008748827802232021542000F0EBFB1823AF
:100D900089A22021002000F02FFC00F0B6FA0A20E2
:100DA00000F07AFE002000F0D1FD022805D01021CD
:100DB0007E4801F016FC01282AD110217B4801F061
:100DC00010FCB8B101207A49086000F05FFF0F20E5
:100DD0007849087007E00A2000F0DBFE75480078CB
:100DE000401E74490870734800780028F3DC002026
:100DF0006F49086000F04AFF0020624948701823DC
:100E0000AFF2A822202100F0F7FB00F07EFA03E009
:100E10005C484078002895D100BF08BD10B56048F7
:100E200040786649097888426CD05D4840786349CB
:100E3000087010215D4801F0D4FB012816D15C49EF
:100E400008600F205B49087007E00A2000F0A1FE4F
:100E500058480078401E57490870564800780028C6
:100E6000F3DC00F013FF00205149086050487C3843
:100E7000006810B9142000F00FFE00F007FF0A21EF
:100E8000012000F006FD4E49088008460088FFF763
:100E9000DEF904464B480078844201DA4948047080
:100EA00049480078E8B9474800780A2819DA00204C
:100EB000404908700EE001203D490860642001F0BF
:100EC000B0F900204149C1F88C013A480078401C33
:100ED00038490870374800780428ECDB01203A498B
:100EE000087039480078012806D136480078322841
:100EF00002DD0020344908703148018834A004F034
:100F0000A5FE00BF10BD10B529487C380068B8B1F7
:100F100000F0BCFE0120264908600F20254908701A
:100F200007E00A2000F035FE22480078401E2149E3
:100F30000870204800780028F3DC00201C49086075
:100F40001B4878380068B8B100F0A0FE01201849AD
:100F500008600F201749087007E00A2000F09CFD88
:100F600014480078401E1349087012480078002881
:100F7000F3DC00200E49086010BD000022000020B4
:100F80000E0000201A0000201E0000200D0000208E
:100F900001000020000000202E00002000000708B3
:100FA000AC050020110000203E00000000080140B8
:100FB0008C012142100000203C00000012000020A3
:100FC00014000020160000200F0000200000214225
:100FD00025640A0001F0E8F84FF4A06001F092FFE8
:100FE00000F042F900F070FC01F0C4F800F0E0FB02
:100FF00000F031FB00F010FD4FF4E13001F04DF94D
:10100000144800681449B0FBF1F0C4B213484168B9
:101010002046884700F08BFF00F0B6F90020104909
:1010200008600C220F49104801F018F80120FFF762
:1010300086F9FFF7B2F90BE0FFF7D8FBFFF72CFCBE
:10104000FFF7C7FCFFF7D2FCFFF7E8FEFFF75BFFF7
:10105000F2E700003C00002040420F00B8000020F2
:101060008C0121422E00002000000708704700BFBD
:10107000FEE700BFFEE700BFFEE700BFFEE77047E8
:1010800070477047704700000CB500200190009039
:101090006C48006840F480306A49086000BF6948C5
:1010A000006800F4003000900198401C0190009806
:1010B00018B90198B0F5A06FF1D16248006800F44A
:1010C000003010B10120009001E000200090009855
:1010D000012843D15C48006840F010005A4908607C
:1010E0000846006820F0030008600846006840F0E9
:1010F000020008605348406852494860084640680A
:1011000048600846406840F480604860084640688F
:1011100020F47C1048600846406840F4E8104860BD
:101120000846006840F08070086000BF45480068CD
:1011300000F000700028F9D04248406820F0030019
:10114000404948600846406840F00200486000BFDF
:101150003C48406800F00C000828F9D10CBD10B5DF
:10116000FFF792FF10BD10B53648006840F001004F
:1011700034490860084640683449084031494860AD
:1011800008460068324908402E4908600846006851
:1011900020F4802008600846406820F4FE00486083
:1011A0004FF41F008860FFF7DAFF4FF00060294915
:1011B000086010BD10B5002100200022214B5B68A3
:1011C00003F00C0121B1042906D0082928D107E039
:1011D000214B224C236027E01F4B204C236023E04F
:1011E000184B5B6803F47010164B5B6803F4803295
:1011F000022303EB904022B9194B4343174C236061
:101200000DE0104B5B6803F4003323B1144B4343F0
:10121000124C236003E0104B4343104C236003E067
:101220000D4B0E4C236000BF00BF064B5B68C3F341
:1012300003130C4CE15C094B1B68CB40074C23604B
:1012400010BD000000100240002002400000FFF826
:10125000FFFFF6FE08ED00E000127A003C000020DF
:1012600000093D004000002008B50121242001F0C4
:10127000E1FB0820ADF8000010208DF803000320EA
:101280008DF8020069460F4801F018F908210D4851
:1012900001F0C1F91020ADF800006946094801F0DD
:1012A0000DF91021074801F0B6F92020ADF8000033
:1012B0006946044801F002F92021024801F0ABF927
:1012C00008BD00000008014070B504460D46FE4808
:1012D00001F09DF900F47F40E1B240EA0106314699
:1012E000F94801F0A1F9F94805600020F849C1F872
:1012F000A401F649091F086001200860F349091D8F
:101300000860F349C1F8A00170BD70B500241CE06D
:1013100004F1B001C8B20021FFF7D6FF0021084652
:10132000FFF7D2FF00211020FFF7CEFF002508E0D5
:10133000E84901EBC501085D0121FFF7C5FF681C05
:10134000C5B2802DF4DB601CC4B2082CE0DB70BD9C
:1013500010B500218D20FFF7B7FF00211420FFF703
:10136000B3FF0021AF20FFF7AFFF10BD10B5002184
:101370008D20FFF7A9FF00211020FFF7A5FF002116
:10138000AE20FFF7A1FF10BD70B500240CE00025D2
:1013900006E00020CF4901EBC5010855681CC5B225
:1013A000802DF6DB601CC4B2082CF0DBFFF7ADFF2C
:1013B00070BDF0B5144600267F2801DC3F2900DD12
:1013C000F0BD0B46CF1701EB5777FF10C7F10707AA
:1013D000FAB2CF1701EB5777FF10A1EBC707FDB2A9
:1013E000C5F107070123BB40DEB24CB1B94B03EB9B
:1013F000C0039B5C3343B74F07EBC007BB5408E007
:10140000B44B03EBC0039B5CB343B24F07EBC00785
:10141000BB5400BFD4E72DE9F04706460F4690467F
:101420009946DDF820A034460CE03D4606E05246E1
:1014300029462046FFF7BDFF681CC5B24D45F6DDC5
:10144000601CC4B24445F0DDFFF75FFFBDE8F087E4
:101450002DE9F84F80460F4616461C46BA462046F0
:10146000E31704EB5373DB1021464FEAE47C04EBF3
:101470005C7C4FEAEC0CA4EBCC0CBCF1000F02D06E
:101480004FF0010C01E04FF0000C6344224604EBE6
:10149000D27C4FEA6C0C03FB0CF303F0FF0BA6F1BC
:1014A0002000C6B200254EE00C2C07D106EB46000A
:1014B000894901EB8000405D009013E0102C05D1BC
:1014C000864800EB0610405D00900BE0182C07D119
:1014D00006EBC600824901EB8000405D009001E010
:1014E000BDE8F88F4FF0000927E0009800F0800079
:1014F00028B1394640460A9AFFF75BFF09E00A988F
:1015000008B9012000E00020024639464046FFF7B6
:1015100050FF00984006000E0090781CC7B2A7EB61
:101520000A00A04205D1574608F1010000F0FF086B
:1015300006E009F1010000F0FF09B9F1080FD4DB62
:1015400000BF681CC5B25D45AEDB00BFC8E710B583
:101550000246012000E050430B00A1F10104E1B27A
:10156000F9D110BD2DE9FF4F81B0074691461E46C7
:101570000E9D4FF0000A002439E0301B401EC1B21E
:101580000A20FFF7E4FFB9FBF0F00A21B0FBF1F20B
:1015900001FB1208BAF1000F16D1701EA04213DD34
:1015A000B8F1000F0ED10120AB4605EBDB714910FD
:1015B00001FB04710090C8B22B4620220299FFF76C
:1015C00047FF12E04FF0010A0120AB4605EBDB714B
:1015D000491001FB04710090C8B208F13001CAB291
:1015E0002B460299FFF734FF00BF601CC4B2B4421F
:1015F000C3DB05B0BDE8F08FF8B506460F461546CB
:101600001C4621E004EBD4714910C1F18001B142C4
:1016100002DA00263819C7B2C4F14000B84204DA31
:10162000002006460746FFF7AFFE012000902A780B
:10163000234639463046FFF70BFF204604EBD071B6
:1016400006EB6101CEB26D1C28787E2802DC28787A
:101650002028D7DAF8BD08B50121182001F0EAF9F1
:101660000121084601F0E6F901211E4800F0F7FFCC
:10167000FF20ADF8000010208DF8030003208DF846
:1016800002006946104800F019FF4FF6FF710E483E
:1016900000F0CAFF4FF47070ADF8000010208DF814
:1016A000030003208DF8020069460F4800F006FF92
:1016B0004FF470710C4800F0AEFF0021AE20FFF730
:1016C00003FE0021D52011E0000C0140A0012242C0
:1016D00000002242AC0100200E6100088265000873
:1016E000726B00080002300000100140FFF7ECFDB3
:1016F00000215020FFF7E8FD0021A820FFF7E4FDBE
:1017000000213F20FFF7E0FD0021D320FFF7DCFDA3
:1017100000210846FFF7D8FD00214020FFF7D4FD47
:1017200000218D20FFF7D0FD00211420FFF7CCFD14
:1017300000212020FFF7C8FD00210220FFF7C4FD93
:101740000021A120FFF7C0FD0021C020FFF7BCFD54
:101750000021DA20FFF7B8FD00211220FFF7B4FDC9
:1017600000218120FFF7B0FD0021EF20FFF7ACFD45
:101770000021D920FFF7A8FD0021F120FFF7A4FDEB
:101780000021DB20FFF7A0FD00213020FFF79CFDAA
:101790000021A420FFF798FD0021A620FFF794FD6B
:1017A0000021AF20FFF790FDFFF7EEFD08BD000020
:1017B00000B587B001214FF4017001F03BF94FF4FF
:1017C000004001F09BF80220ADF8040000208DF8E5
:1017D000070001A93A4800F071FE0420ADF80400AA
:1017E00000208DF8070001A9354800F067FE354854
:1017F00001F0F6FB0020029001208DF80C00002083
:101800008DF80D004FF460200490002005900A2010
:101810008DF8180002A92B4801F009FC07230122CA
:101820001146284801F09BFC072302221146254857
:1018300001F095FC0121234801F025FC214801F02D
:1018400044FC00BF1F4801F045FC0028FAD11D48A8
:1018500001F04AFC00BF1B4801F04BFC0028FAD104
:1018600007B000BD10B5044607230A2221461548DB
:1018700001F075FC0121134801F045FC00BF022175
:10188000104801F0B1FD0028F9D00E4801F0CEFC5F
:1018900010BD2DE9F04107460C460025002608E062
:1018A0003846FFF7DFFF0544052000F0BAFC701C46
:1018B000C6B2A642F4DBB5FBF4F080B2BDE8F0811D
:1018C000000801400024014008B50121142001F066
:1018D000B1F80120ADF8000028208DF8030069461A
:1018E0004A4800F0EBFD0220ADF8000028208DF8FA
:1018F00003006946454800F0E1FD0420ADF8000012
:1019000028208DF803006946404800F0D7FD0820E4
:10191000ADF8000028208DF8030069463B4800F030
:10192000CDFD1020ADF8000028208DF80300694699
:10193000374800F0C3FD2020ADF8000028208DF8C6
:1019400003006946324800F0B9FD08BD10B50446F1
:1019500014B101202F4908702E48007800283CD08F
:1019600001212A4800F03DFE012811D0022127481C
:1019700000F037FE01280BD00421244800F031FE8E
:10198000012805D00821214800F02BFE012824D190
:101990000A2000F046FC00201E49087001211B4867
:1019A00000F01FFE012800D110BD0221174800F0F1
:1019B00018FE012801D10220F6E70421134800F0A7
:1019C00010FE012801D10320EEE708210F4800F0A6
:1019D00008FE012818D10420E6E701210B4800F099
:1019E00000FE88B90221094800F0FBFD60B904211E
:1019F000064800F0F6FD38B90821044800F0F1FD72
:101A000010B90120034908700020CDE70010014003
:101A1000000801405000002008B50121082001F015
:101A200009F84FF48050ADF8000010208DF8030045
:101A300003208DF8020069469B4800F03FFD4FF4FB
:101A40008051994800F0E7FD4FF40050ADF80000D8
:101A50006946954800F032FD4FF40051924800F07D
:101A6000DAFD4FF48040ADF8000069468E4800F082
:101A700025FD4FF480418C4800F0CDFD4FF400402F
:101A8000ADF800006946884800F018FD4FF40041A9
:101A9000854800F0C0FD08BD10B50446002083490C
:101AA000086001208249C1F8B40100207F49083153
:101AB00008607F49C1F8BC01204600F0B2FB00205D
:101AC0007A4908600120091D08600020091D08608E
:101AD00001207749C1F8BC01204600F0A2FB00209C
:101AE00072490860091D0860091D086001207049DD
:101AF000C1F8BC01204600F094FB01206B4908604E
:101B00000020091D0860091D086001206849C1F80E
:101B1000BC01204600F085FB0120644908600020DC
:101B2000091D0860091D08606149C1F8BC01204613
:101B300000F077FB01205D4908600020091D086066
:101B40000120091D086000205949C1F8BC01204648
:101B500000F067FB002055490860091D086001205E
:101B6000091D086000205249C1F8BC01204600F060
:101B700058FB00204D4908600120091D0860091D1F
:101B8000086000204A49C1F8BC01204600F049FB2A
:101B900010BD10B5044600204449086001204449A6
:101BA000C1F8B40141490831086000204049C1F83A
:101BB000BC01204600F035FB00203C490860091DAF
:101BC00008600120091D086000203949C1F8BC01E6
:101BD000204600F026FB0120344908600020091D42
:101BE00008600120091D086000203149C1F8BC01CE
:101BF000204600F016FB01202C4908600020091D3A
:101C00000860091D08602A49C1F8BC01204600F09F
:101C100008FB0120254908600020091D0860091DF6
:101C2000086001202249C1F8BC01204600F0F9FA01
:101C300000201E490860091D0860091D0860012078
:101C40001B49C1F8BC01204600F0EBFA00201749FF
:101C500008600120091D08600020091D086001209E
:101C60001349C1F8BC01204600F0DBFA00200F49FF
:101C700008600120091D08600020091D08600C494A
:101C8000C1F8BC01204600F0CCFA10BD0020074985
:101C900008600749C1F8B4010449083108600449E3
:101CA000C1F8BC0170470000000C0140B081214226
:101CB0000080214208B503208DF8000000208DF837
:101CC00001008DF8020001208DF80300684601F044
:101CD0001EF908BDF0B503460C461546642093FB7B
:101CE000F0F0C6B2642093FBF0F700FB1730C1B2EE
:101CF000132E02DD01F16400C1B20846CF1701EBDB
:101D0000977701EBA707BAB2072092FBF0F700FB29
:101D1000172082B25719601EDFF8F8C21CF80000C5
:101D2000384482B2CF1701EB9777BF10A1EB87073A
:101D30001FB9032C01DA501E82B2072092FBF0F784
:101D400000FB1720C0B2F0BD0146CA1701EB92722A
:101D50009210A1EB820292B9642091FBF0F200FB99
:101D6000121050B94FF4C87091FBF0F200FB121042
:101D700008B9012070470020FCE70120FAE70020A5
:101D8000F8E770B500260024002501F071FB064637
:101D9000A148B6FBF0F4A1480088A0423CD09F497E
:101DA0000C8040F2B27510E02846FFF7CDFF40B13D
:101DB000B4F5B77F02D3A4F5B77404E0681C85B20C
:101DC00006E0A4F26D14681C85B2B4F5B67FEBD8BA
:101DD00000BF93488580002516E091498888FFF769
:101DE000B3FF30B1012D04D11D2C01D31D3C09E0FE
:101DF0000CE08C48405DA04203D88A48405D241A1C
:101E000000E003E0681C85B21C2CE6D200BF681C11
:101E100083498871601CC8717F48B6FBF0F100FBF4
:101E200011644FF46160B4FBF0F07D4908704FF429
:101E30006160B4FBF0F100FB11403C21B0FBF1F01C
:101E4000774948704FF46160B4FBF0F100FB11403A
:101E50003C21B0FBF1F201FB1200714988700B4686
:101E6000DA7999799888FFF735FF6D490872002073
:101E700070BD2DE9F05F06460F4690469946DDE9B4
:101E80000AAB002440F2B270864203DB40F6330016
:101E9000864202DD0120BDE8F09F40F2B2750AE003
:101EA0002846FFF751FF10B15F48044401E05F4846
:101EB0000444681C85B2B542F2DB781EC7B2002527
:101EC00010E05848405D40F2A321484304EBC014A1
:101ED0003046FFF739FF18B1012D01D14E480444B7
:101EE000681C85B2BD42ECDBA8F1010040F2A321E1
:101EF000484304EBC014C9EB4910C0EB092004EBC4
:101F00000014CAEB0A1004EB80045C4401214FF07A
:101F1000C05000F09CFD012002F0A9FA204601F01B
:101F2000B0FA01F0E1FAFFF72CFF0020B3E71CB58F
:101F3000002401214FF0C05000F089FD012002F083
:101F400096FA042001F04DFB45F2500188423FD043
:101F500001F012FB012000F0DAFC04E0601CC4B2C6
:101F60000A2000F05EF9412000F039FC0028F5D08D
:101F7000FA2C01DB01201CBD4FF4807000F0E3FC63
:101F8000012000F0E6FC01F0AFFA01F0B6FA012101
:101F9000084601F04DFA01F0A7FA01F056FA47F6AB
:101FA000FF7001F07BFA01F09FFA372000210A232D
:101FB0000222CDE900100C2140F2D970FFF759FF41
:101FC00001F04CFA45F25001042001F0FEFA07E05E
:101FD00001F093FA0121084601F02AFA01F084FA8F
:101FE000FFF768FEFFF7CDFE0020C4E710B5012023
:101FF00001F0A8FA08B1FFF7C4FE022001F0A2FA2E
:1020000010B1022001F0AEFA052001F0ABFA01F0A8
:102010006BFA10BDCE7800088051010052000020FC
:10202000AC050020DA7800080085E2018033E10188
:102030000146088870472DE9F04105460E461746CF
:10204000002407E036F81410284602F0D2FBAD1C3D
:10205000601C84B2BC42F5DBBDE8F08130B50346BC
:102060000C461546002207E01846FFF7E1FF24F86A
:1020700012009B1C501C82B2AA42F5DB30BD2DE938
:10208000F05F80468A461746B8F1006F02D33748A2
:10209000804501D3BDE8F09F02F063FAA8F1006B20
:1020A0004FEADB25CBF34909C9F58064A74200DC80
:1020B0003C464DE04FF0006101EBC5204A142C492D
:1020C000FFF7CCFF00260BE009EB0600284931F8AA
:1020D00010004FF6FF71884200D003E0701C86B2FA
:1020E000A642F1DB00BFA6421BDA4FF0006101EB14
:1020F000C52002F07BFA002608E03AF8160006EB4D
:1021000009011B4A22F81100701C86B2A642F4DBBA
:102110004FF0006101EBC5204A141549FFF78BFF12
:1021200004E0224651464046FFF785FFA74200D112
:102130000FE06D1C4FF000090AEB440AA044381B65
:1021400087B2B7F5806F02DD4FF4806400E03C4653
:10215000B0E700BF02F011FA00BF9BE713B50446D9
:10216000012201A92046FFF78AFF1CBD00000808D4
:10217000B605002008B50121042000F05BFC10200A
:102180008DF803000820ADF8000003208DF8020050
:102190006946044800F092F90821024800F03DFA2F
:1021A00008BD0000000C014010B56FF0040000F005
:1021B000F8FE2E4800682E49B0FBF1F02D4908705A
:1021C0000846007800EB4001C1EBC0104FF6FF71EC
:1021D00001EAC0002849088010BD0146254A12784E
:1021E0004A434FF0E0235A6100229A611A4612696D
:1021F00042F001021A6100BF4FF0E022106900F0C6
:1022000001021AB100F48032002AF5D04FF0E0222A
:10221000126922F001024FF0E0231A6100229A6154
:1022200070470146144A12884A434FF0E0235A612E
:1022300000229A611A46126942F001021A6100BF37
:102240004FF0E022106900F001021AB100F4803270
:10225000002AF5D04FF0E022126922F001024FF07F
:10226000E0231A6100229A61704700003C000020C0
:1022700000127A005400002056000020014600BFE2
:10228000704700BF494A128802F04002002AF9D084
:10229000C2B2464B1B1D1A80704710B586B004466B
:1022A000012144F2040000F0C5FB4FF40070ADF8CA
:1022B000140003208DF8160018208DF8170005A9CA
:1022C0003B4800F0FBF84FF48060ADF814000420A8
:1022D0008DF8170005A9364800F0F0F825208DF894
:1022E000000003208DF801008DF8020001208DF818
:1022F0000300684600F00BFE01940020ADF80800D2
:10230000ADF80A00ADF80C00ADF810000C20ADF8E7
:102310000E0001A9254800F034FC012240F22551AD
:10232000224800F0C6FC0121204800F0B6FC06B0AF
:1023300010BD10B540F225511C4800F09FFD10B3B0
:102340001A4800F01BFDC4B21A48008800F400408F
:10235000C8B91848008800F4804060B10A2C03D046
:1023600000201449088020E01248008840F4004012
:102370001049088019E00D2C06D10E48008840F461
:1023800080400C49088010E00A480088C0F30D0026
:1023900009490C5407480088401C06490880084633
:1023A0000088C72801DD0020088010BD00380140EA
:1023B000000801405C000020B60D0020094880475D
:1023C00009480047FEE7FEE7FEE7FEE7FEE7FEE717
:1023D000FEE7FEE7FEE7FEE704480549054A064B2F
:1023E000704700006711000831010008E00E00206E
:1023F000E0140020E0100020E010002010B504469A
:10240000CC48844208D10121042000F02DFB00219A
:10241000042000F029FB46E0C748844208D101218E
:10242000082000F021FB0021082000F01DFB3AE00D
:10243000C248844208D10121102000F015FB002180
:10244000102000F011FB2EE0BD48844208D101218C
:10245000202000F009FB0021202000F005FB22E0F5
:10246000B848844208D10121402000F0FDFA002143
:10247000402000F0F9FA16E0B348844208D1012167
:10248000802000F0F1FA0021802000F0EDFA0AE04F
:10249000AE48844207D10121801500F0E5FA002101
:1024A000A01500F0E1FA10BD10B50121084600F0BA
:1024B000DBFA0021012000F0D7FA10BD2DE9F04130
:1024C000024600250026002000230024002791F862
:1024D00003C00CF00F0591F803C00CF0100CBCF118
:1024E000000F03D091F802C04CEA050591F800C036
:1024F000BCF1000F31D0146800202BE04FF0010C2C
:102500000CFA00F3B1F800C00CEA03069E4220D199
:1025100083004FF00F0C0CFA03F7BC4305FA03FCE1
:102520004CEA040491F803C0BCF1280F06D14FF027
:10253000010C0CFA00FCC2F814C00AE091F803C0C8
:10254000BCF1480F05D14FF0010C0CFA00FCC2F8A9
:1025500010C0401C0828D1D31460B1F800C0BCF1F1
:10256000FF0F34DD546800202EE000F1080C4FF01E
:10257000010808FA0CF3B1F800C00CEA03069E4209
:1025800021D183004FF00F0C0CFA03F7BC4305FA7E
:1025900003FC4CEA040491F803C0BCF1280F05D1F8
:1025A00000F1080C08FA0CF8C2F8148091F803C086
:1025B000BCF1480F07D100F1080C4FF0010808FAF0
:1025C0000CF8C2F81080401C0828CED35460BDE837
:1025D000F0814FF6FF710180022181700421C170EA
:1025E00070470246002093680B400BB1012000E0C9
:1025F000002070470146886880B27047024600207C
:10260000D3680B400BB1012000E000207047014669
:10261000C86880B2704701617047416170470AB174
:10262000016100E041617047C16070474FF4803242
:102630000A438261816182618269826970470246D0
:102640000020434B18684FF68073184040EA021090
:1026500008433F4B186070473E49C8617047F0B56A
:102660000A46002300240021002500F00046B6F1B0
:10267000004F02D1364EF16901E0354E7168C0F36A
:10268000034583B200F44016B6F5401F08D121F08F
:1026900070612F4E766826F070662D4F7E6012E0D6
:1026A00000F48016B6F5801F06D1032606FA05F45D
:1026B000A14341F0706106E0460D360103FA06F6CB
:1026C000B14341F0706122B1460D360103FA06F6BE
:1026D000314300F00046B6F1004F02D11C4EF161CB
:1026E00001E01B4E7160F0BD30B500228B071C0F5E
:1026F0000F2303FA04F2164B08338C1053F82430DE
:102700009343134C08348D1044F8253023468C1025
:1027100053F824308C07240F00FA04F423430C4CA4
:1027200008348D1044F8253030BD0A49DC3108608A
:102730007047000000080140000C014000100140FB
:102740000014014000180140001C0140002001401D
:102750000000014000002042DF48006840F0010016
:10276000DD49086008464068DC490840DA494860AD
:1027700008460068DA490840D749086008460068FA
:1027800020F4802008600846406820F4FE0048607D
:102790004FF41F0088607047CF49096821F48031E9
:1027A000CD4A11601146096821F480211160B0F50D
:1027B000803F03D0B0F5802F0ED106E0C6490968EE
:1027C00041F48031C44A116007E0C349096841F40B
:1027D000A021C14A116000E000BF00BF704710B5E2
:1027E00001460022002300204A11012A02D1BA4CDE
:1027F000236806E0022A02D1B74C236A01E0B64CF6
:10280000636A01F01F02012494401C400CB10120B6
:1028100000E0002010BD38B5002000900024002505
:1028200000BF3120FFF7DBFF05460098401C0090F9
:102830000098B0F5A06F01D0002DF2D03120FFF745
:10284000CEFF08B1012400E00024204638BD014637
:102850000020A14A106820F0F80040EAC100106092
:102860007047A04908607047024600209A4B58689C
:1028700020F47C1042EA01031843974B58607047DC
:1028800098490866704701460020934A506820F036
:1028900003000843506070478F48406800F00C0008
:1028A0007047014600208C4A506820F0F000084331
:1028B0005060704701460020874A506820F4E0606D
:1028C00008435060704701460020834A506820F456
:1028D000605040EAC1005060704729B17E4A527A88
:1028E00002437D4B5A7204E07B4A527A82437A4B10
:1028F0005A7270477B49D831086070470146002002
:10290000754A506820F440400843506070470021E9
:10291000714A20321170704A82F82010012802D0CA
:1029200004280AD104E001216B4A2032117005E02D
:102930000521694A2032117000E000BF00BF7047D6
:102940006949086070476449096A0143624A116233
:102950007047654944390860704730B5002100224E
:10296000002400235C4D6D6805F00C0121B10429A1
:1029700005D0082923D105E05C4D056022E05B4DC0
:1029800005601FE0544D6D6805F47012524D6D687E
:1029900005F48034022505EB92421CB9544D554391
:1029A00005600BE04C4D6D6805F400351DB1504DD0
:1029B0005543056002E04D4D5543056002E04B4D27
:1029C000056000BF00BF444D6D6805F0F0010909C6
:1029D000484D6B5C0568DD4045603F4D6D6805F412
:1029E000E061090A434D6B5C4568DD4085603A4D06
:1029F0006D6805F46051C90A3E4D6B5C4568DD4069
:102A0000C560354D6D6805F44041890B3A4D6B5CEE
:102A1000C568B5FBF3F5056130BD29B12E4A526991
:102A200002432D4B5A6104E02B4A526982432A4BE0
:102A30005A61704729B1284A92690243264B9A612C
:102A400004E0254A92698243234B9A61704729B179
:102A5000214AD2690243204BDA6104E01E4AD2695E
:102A600082431D4BDA61704729B11B4AD268024389
:102A7000194BDA6004E0184AD2688243164BDA60D8
:102A8000704729B1144A12690243134B1A6104E0DA
:102A9000114A12698243104B1A617047124940393A
:102AA000086070470F49C86470470B49C871704788
:102AB0000948406A40F08070074948627047014603
:102AC0000020054A92680A400AB1012000E0002077
:102AD0007047014988727047001002400000FFF8FB
:102AE000FFFFF6FE000042428004424200127A00DC
:102AF00000093D005E0000206E00002010B5044675
:102B0000FB48844209D101218803FFF7ADFF002172
:102B10004FF48040FFF7A8FF32E0F648844209D125
:102B200001214804FFF7ADFF00214FF40030FFF70B
:102B3000A8FF25E0F048844209D101218804FFF76D
:102B4000A0FF00214FF48020FFF79BFF18E0EB4827
:102B5000844209D10121C804FFF793FF00214FF4FB
:102B60000020FFF78EFF0BE0E548844208D10121E9
:102B70000805FFF786FF00214FF48010FFF781FF63
:102B800010BD2DE9F04786B005460E460024A2464A
:102B900000BFA1460027B08900B100BF2F462C8A94
:102BA0004CF6FF700440F08804432C82AC894EF64A
:102BB000F3100440B0883189084371890843044305
:102BC000AC81AC8A4FF6FF400440B0890443AC822C
:102BD00001A8FFF7C2FEC648874202D1DDF810A067
:102BE00001E0DDF80CA0A88900F4004040B10AEB38
:102BF000CA0000EB0A1031684900B0FBF1F807E0A9
:102C00000AEBCA0000EB0A1031688900B0FBF1F84A
:102C10006420B8FBF0F004012009642101FB108955
:102C2000A88900F4004040B1322000EBC900B0FB9D
:102C3000F1F000F00700044308E0322000EB091037
:102C40006421B0FBF1F000F00F0004432C8106B0CA
:102C5000BDE8F0874FF41651016000218180C180EA
:102C600001810C21418100218181704710B502460C
:102C70000020108A4FF2FF0318400B884C88234332
:102C80008C882343CC8823431843108210BD002135
:102C9000018041808180C180704721B1828942F4E6
:102CA0000052828104E082894DF6FF731A408281CE
:102CB0007047F0B50346002400260025002040F6AA
:102CC0006A17B94200D100BF1846C1F3421401F09F
:102CD0001F06012707FA06F5012C01D10C3004E08C
:102CE000022C01D1103000E014301AB107682F43D4
:102CF000076002E00768AF430760F0BD1AB1838A3E
:102D00000B43838202E0838A8B4383827047028A6B
:102D10004FF6F0731A400282028A0A430282704719
:102D200082894FF2FF731A40828182890A4382812D
:102D3000704721B1828942F00202828104E08289D7
:102D40004FF6FD731A4082817047028A4FF6DF7397
:102D50001A400282028A0A430282704721B1028A23
:102D600042F48042028204E0028A4BF6FF731A406A
:102D700002827047C1F3080282807047014688884A
:102D8000C0F308007047818941F0010181817047DB
:102D9000028BD2B20283028B42EA01220283704785
:102DA000028B02F47F420283028B0A430283704744
:102DB00021B1828A42F02002828204E0828A4FF6A8
:102DC000DF731A408282704721B1828A42F010027A
:102DD000828204E0828A4FF6EF731A408282704743
:102DE00021B1828A42F00802828204E0828A4FF690
:102DF000F7731A408282704721B1828942F40042FF
:102E0000828103E08289C2F30E028281704721B180
:102E1000828A42F40062828204E0828A4FF2FF7367
:102E20001A4082827047828A4FF6FB731A40828270
:102E3000828A0A438282704721B1828A42F002026A
:102E4000828204E0828A4FF6FD731A4082827047C4
:102E500002460020B1F5007F00D100BF13880B406F
:102E60000BB1012000E00020704701F40072B2F5C0
:102E7000007F00D100BFCA430280704770B5024690
:102E8000002400230025002040F66A16B14200D13C
:102E900000BFC1F3421501F01F03012606FA03F338
:102EA000012D02D19689334006E0022D02D1168A07
:102EB000334001E0968A33400C12012606FA04F4EE
:102EC0001688344013B10CB1012000E0002070BD21
:102ED00010B50022002340F66A14A14200D100BFC1
:102EE0000A1201249440A3B2DC43048010BD000008
:102EF000003801400044004000480040004C0040C1
:102F00000050004031490143314A1160704770B5AB
:102F1000002100230F22C47804B32D4C246804F44C
:102F2000E064C4F5E064210AC1F10403CA404478B6
:102F300004FA03F18478144021430901254C0678F2
:102F4000A155047804F01F050124AC4005786D11EB
:102F5000AD0005F1E025C5F8004109E0047804F072
:102F60001F050124AC401C4D0678761145F826401B
:102F700070BD1A4A0A400243154B1B1F1A60704766
:102F800039B1134A121D12680243114B1B1D1A60FE
:102F900006E00F4A121D126882430D4B1B1D1A607A
:102FA0007047042808D14FF0E021096941F004017D
:102FB0004FF0E022116107E04FF0E021096921F0B4
:102FC00004014FF0E0221161704700000000FA0593
:102FD0000CED00E000E400E080E100E080FFFF1F76
:102FE00010B50446FA48844208D101214015FFF784
:102FF0003BFD00216015FFF737FD17E0F5488442DF
:1030000008D101210015FFF72FFD00212015FFF742
:103010002BFD0BE0F048844208D10121C803FFF7E3
:1030200023FD00214FF40040FFF71EFD10BD30B519
:103030000246002000235068E84C20400D790C68BF
:1030400044EA0524204350609068E54C2040D1E9D3
:1030500002542C434D7944EA450420439060D06AE1
:1030600020F470000C7C641EE4B2234340EA035059
:10307000D06230BD00210160017141718160C16089
:1030800001210174704721B1826842F0010282601F
:1030900003E0826822F001028260704721B18268F9
:1030A00042F48072826003E0826822F4807282605F
:1030B000704710B50023CBB21AB144681C4344607A
:1030C00002E044689C43446010BD816841F00801FF
:1030D00081607047014600208A6802F008020AB148
:1030E000012000E000207047816841F00401816008
:1030F0007047014600208A6802F004020AB10120EC
:1031000000E00020704721B1826842F4A002826092
:1031100003E0826822F4A00282607047014600202A
:103120008A6802F480020AB1012000E000207047A2
:1031300010B50A4600210023416821F46041531E66
:1031400041EA4331416010BD21B1426842F400625E
:10315000426003E0426822F4006242607047F0B5CA
:1031600004460D4600200021092D11DDE068A5F17F
:103170000A0606EB4607072606FA07F18843A5F17B
:103180000A0606EB460603FA06F10843E0600CE087
:10319000206905EB4507072606FA07F1884305EB8A
:1031A000450603FA06F108432061072A0FDA606B2F
:1031B000561E06EB86071F2606FA07F18843561EA1
:1031C00006EB860605FA06F10843606322E00D2A45
:1031D0000FDA206BD61F06EB86071F2606FA07F1CB
:1031E0008843D61F06EB860605FA06F108432063DE
:1031F00010E0E06AA2F10D0606EB86071F2606FA2C
:1032000007F18843A2F10D0606EB860605FA06F1E2
:103210000843E062F0BD21B1826842F4801282600E
:1032200003E0826822F48012826070470146C86C15
:1032300080B2704766484C300068704721B14268E0
:1032400042F48062426003E0426822F4806242609D
:10325000704721B1426842F48052426003E0426804
:1032600022F48052426070470A460021816821F4AE
:10327000E04111438160704721B1826842F400420D
:10328000826003E0826822F400428260704721B1CC
:10329000826842F40212826003E0826822F4021221
:1032A00082607047014600208A6802F400120AB169
:1032B000012000E000207047F0B5044615460020CC
:1032C00000220026092911DDE068A1F10A0707EBB9
:1032D000470C072707FA0CF29043A1F10A0707EB06
:1032E000470703FA07F21043E0600CE0206901EBA6
:1032F000410C072707FA0CF2904301EB410703FA50
:1033000007F210432061A06BC0F30156EF1C06F1D9
:10331000010CA7EB0C0707EB870C1F2707FA0CF231
:103320009043EF1C06F1010CA7EB0C0707EB870796
:1033300001FA07F21043A063F0BD10B50A46002160
:103340000023816B21F44011531E41EA0351816334
:1033500010BD08B5002300930090009B0B44009320
:10336000009B1A6008BD08B502460020009000923C
:1033700001F12800009B184400900098006880B27A
:1033800008BD0A4600214168164B194011434160AF
:1033900070474162826270470A460021416821F00D
:1033A0001F0111434160704740B109490831096864
:1033B00041F40001064A0832116007E0044908316F
:1033C000096821F40001024A0832116070470000C8
:1033D0000024014000280140003C0140FFFEF0FFB6
:1033E000FDF7F1FFFFFD3FFF0246002013680B4091
:1033F0000BB1012000E000207047CA430260704713
:1034000070B502460020002300240B125568CEB28E
:1034100005EA060415681D4015B10CB1012000E055
:10342000002070BD00220A12D343036070470000E1
:1034300029B1504A128802434E4B1A8004E04D4A8B
:10344000128882434B4B1A8070474A48001D0088FF
:1034500040F010004749091D088070474548001D8D
:1034600000884FF6EF7108404249091D08807047F7
:10347000002140481C300188001F008841EA0040BC
:10348000704700B50246FFF7E0FF100C39491831CC
:103490000880091D0A80FFF7E1FF00BD00B5024664
:1034A000FFF7D3FFC2F30340324908310880091DFA
:1034B0000A80FFF7D3FF00BD00B50246FFF7C5FF46
:1034C000100C2C4920310880091D0A80FFF7C6FF27
:1034D00000BD00202749103109880907080B25493C
:1034E000143109880843704700BF2248001D008836
:1034F00000F020000028F8D070471E48001D00880A
:103500004FF6F77108401B49091D088000BF194894
:10351000001D008800F008000028F8D07047014620
:103520000020144A121D12880A400AB1012000E04E
:10353000002070470F49091D098881430D4A121D5B
:1035400011807047014600200A4A121D12880A4065
:10355000D0B2084A12880A4012B108B1012000E036
:10356000002070470349091D09888143014A121D43
:10357000118070470028004010B50120FFF78EFA37
:103580000020FFF78BFA10BD2A49086070472949CF
:10359000091F086070472749843108607047014659
:1035A0000020254A10884FF67F4210400843224AE7
:1035B00010807047014600201F4A10884FF6807225
:1035C000104008431C4A1080704708B50022009242
:1035D000194A2C3A0092009A02440092009A116013
:1035E00008BD08B501460020009013482C38009013
:1035F0000098084400900098008808BD0D489C3051
:103600000068C0B270470C480830008840F00100E4
:1036100009490831088070470648A0300068C0B2E8
:10362000704705480830008840F002000249083120
:103630000880704704860D422C6C004010B504468B
:10364000FE48844208D10121C014FFF70DFA002181
:10365000E014FFF709FAC4E0B4F1804F08D101216A
:103660000846FFF70EFA00210120FFF70AFAB8E03A
:10367000F348844208D101210220FFF702FA002119
:103680000220FFF7FEF9ACE0EE48844208D10121A8
:103690000420FFF7F6F900210420FFF7F2F9A0E07B
:1036A000E948844208D101210820FFF7EAF9002106
:1036B0000820FFF7E6F994E0E448844208D10121AC
:1036C0001020FFF7DEF900211020FFF7DAF988E07B
:1036D000DF48844208D101212020FFF7D2F90021E0
:1036E0002020FFF7CEF97CE0DA48844208D101219E
:1036F0004014FFF7B9F900216014FFF7B5F970E045
:10370000D548844209D10121C804FFF7ADF9002151
:103710004FF40020FFF7A8F963E0D048844209D1B4
:1037200001210805FFF7A0F900214FF48010FFF7F1
:103730009BF956E0CA48844209D101214805FFF7A8
:1037400093F900214FF40010FFF78EF949E0C548C6
:10375000844208D101214020FFF793F90021402045
:10376000FFF78FF93DE0C048844208D10121802055
:10377000FFF787F900218020FFF783F931E0BB488C
:10378000844208D101218015FFF77BF90021A015A3
:10379000FFF777F925E0B648844209D101210804F2
:1037A000FFF762F900214FF48030FFF75DF918E070
:1037B000B048844209D101214804FFF755F900219E
:1037C0004FF40030FFF750F90BE0AB48844208D1CA
:1037D00001218804FFF748F900214FF48020FFF70A
:1037E00043F910BD00220288944B98420ED0994BA9
:1037F00098420BD0B0F1804F08D0914B984205D041
:10380000904B984202D0904B984204D14FF68F7360
:103810001A404B881A438D4B984207D08C4B9842E4
:1038200004D04FF6FF431A40CB881A4302808B889E
:1038300083850B880385814B98420BD0854B98423A
:1038400008D08B4B984205D08A4B984202D08A4BC5
:10385000984201D10B7A038601238382704770B5A9
:10386000002400220023058C4FF6FE7635400584A7
:10387000028C8388048B4FF68F752C40B51E2C402C
:103880000D882C43751E2A400D892A434D882A43F2
:103890006A4DA8420BD06F4DA84208D0744DA84283
:1038A00005D0744DA84202D0734DA84213D14FF6F3
:1038B000F7752A404D892A434FF6FB752A408D88BB
:1038C0002A434FF6FF652B404FF6FF552B408D895D
:1038D0002B43CD892B4383800483CD888586028446
:1038E00070BD70B5002400220023058C4FF6EF76E2
:1038F00035400584028C8388048B48F6FF752C4084
:103900004FF6FF452C400D884FF6FF7606EA052559
:103910002C434FF6DF752A400D8906EA05152A4328
:103920004D8806EA05152A43444DA84202D0494D68
:10393000A8421DD14FF67F752A404D894FF6FF767C
:1039400006EA05152A434FF6BF752A408D8806EA18
:1039500005152A434FF6FF352B404FF2FF752B40DC
:103960008D8906EA85052B43CD8906EA85052B431B
:1039700083800483CD880587028470BD70B50024E0
:1039800000220023058C4FF6FF6635400584028C2B
:103990008388848B4FF68F752C404FF6FC752C4036
:1039A0000D882C434FF6FF552A400D894FF6FF76C0
:1039B00006EA05252A434D8806EA05252A431F4DB8
:1039C000A84202D0234DA8421DD14FF2FF752A40D4
:1039D0004D894FF6FF7606EA05252A434FF6FF3557
:1039E0002A408D8806EA05252A434EF6FF752B40AE
:1039F0004DF6FF752B408D8906EA05152B43CD89C1
:103A000006EA05152B4383808483CD88858702844D
:103A100070BD70B5002200230024058C4EF6FF76A1
:103A200035400584038C8488828B48F6FF752A40D4
:103A30004FF6FF452A400D8820E00000002C014091
:103A40000004004000080040000C0040001000404E
:103A50000014004000340140004C0140005001407F
:103A60000054014000180040001C004000200040AD
:103A70000040014000440140004801404FF6FF76FD
:103A800006EA05252A434DF6FF752B400D8906EA07
:103A900005352B434D8806EA05352B43FA4DA842E0
:103AA00002D0FA4DA84208D14BF6FF752C408D8903
:103AB0004FF6FF7606EA85152C4384808283CD88F5
:103AC000A0F84050038470BD828B4FF2FF331A4040
:103AD0008283828B4FF6FF7303EA01231A438283AA
:103AE0007047F0B50C461546002200210026078CD1
:103AF0004EF6FF7C07EA0C070784828B018C4FF699
:103B0000FF7707EA043640F6FF473A404FF6FF7763
:103B100007EA05273A434FF6FF7707EA03373A43A8
:103B2000D94FB8420ED0D94FB8420BD0B0F1804F28
:103B300008D0D74FB84205D0D64FB84202D0D64FA2
:103B4000B84206D14DF6FF77394046F480573943E5
:103B500005E047F6FF57394044F4805739438283E4
:103B60000184F0BD828B4FF6F3731A408283828BFF
:103B70000A4382837047F0B50C46154600220021A7
:103B80000026078C4FF6FF6C07EA0C070784828B30
:103B9000018C4FF6FF7707EA04264FF60C773A4080
:103BA0004FF6FF7707EA03172F433A43B64FB84261
:103BB0000ED0B64FB8420BD0B0F1804F08D0B44F02
:103BC000B84205D0B34FB84202D0B34FB84206D185
:103BD0004FF6FF57394046F48077394305E04FF2FE
:103BE000FF57394044F48077394382830184F0BD24
:103BF000028B4FF2FF331A400283028B4FF6FF73A2
:103C000003EA01231A4302837047F0B50C461546B8
:103C1000002200210026078C4FF6EF7C07EA0C07F4
:103C20000784028B018C4FF6FF7707EA041640F6F3
:103C3000FF473A404FF6FF7707EA03373A434FF61C
:103C4000FF7707EA05273A438F4FB8420ED08F4FD0
:103C5000B8420BD0B0F1804F08D08D4FB84205D09C
:103C60008C4FB84202D08C4FB84206D14FF6DF7766
:103C7000394046F01007394305E04FF65F77394089
:103C800044F01007394302830184F0BD028B4FF6E4
:103C9000F3731A400283028B0A4302837047F0B524
:103CA0000C46154600220021068C4FF6FE773E405A
:103CB0000684028B018C4FF60C7632407E1C06EA9D
:103CC00003162E433243704EB0420ED06F4EB042B8
:103CD0000BD0B0F1804F08D06D4EB04205D06D4E84
:103CE000B04202D06C4EB04206D14FF6FD76314064
:103CF00044F00106314305E04FF6F576314044F0DB
:103D00000106314302830184F0BD70B505460C46BF
:103D10005D4885420ED05D4885420BD0B5F1804F9D
:103D200008D05B48854205D05A48854202D05A489F
:103D3000854200D100E000BF208850B92389A288C5
:103D400061882846FFF7ABFFE1882846FFF79EFF12
:103D500025E0208804280AD12389A2886188284682
:103D6000FFF753FFE1882846FFF742FF17E020885E
:103D700008280AD12389A28861882846FFF7FBFE1C
:103D8000E1882846FFF7EEFE09E02389A2886188D2
:103D90002846FFF7A6FEE1882846FFF795FE70BD8E
:103DA0002DE9F04105460C4600260127608808B938
:103DB000022600E00026A088012801D1022700E0A9
:103DC00001272088A0B92389A28861882846FFF7A7
:103DD00066FFE1882846FFF759FF23893A463146B6
:103DE0002846FFF712FFE1882846FFF701FF13E09E
:103DF0002389A28861882846FFF707FFE1882846C3
:103E0000FFF7F6FE23893A4631462846FFF747FF7B
:103E1000E1882846FFF73AFFBDE8F0810A884B8821
:103E20001A438B881A43CB881A430B891A434B8950
:103E30001A438B891A43A0F8442070474FF6FF714C
:103E4000818000210180C180418001727047002182
:103E5000018041808180C180018141818181C18156
:103E60007047002101804180012181800021C180B3
:103E7000018170470021018041808180C1800181E2
:103E80004181818170470000002C014000340140D5
:103E90000004004000080040000C004021B10288EE
:103EA00042F00102028004E002884FF6FE731A40DD
:103EB0000280704731B1B0F8442042F40042A0F8CB
:103EC000442005E0B0F84420C2F30E02A0F84420DC
:103ED00070471AB183890B43838102E083898B4346
:103EE000838170478182704741EA0203A0F848301D
:103EF00070471AB183890B43838102E083898B4326
:103F00008381704701894FF6F87211400181704733
:103F10000A46002101894FF68F7319401143018130
:103F2000704730B504460D4629462046FFF7F0FF9E
:103F3000208940F00700208130BD2DE9F041044682
:103F40000D4616461F46602D06D13B4601223146DE
:103F50002046FFF75AFE05E03B4601223146204647
:103F6000FFF79DFE29462046FFF7D2FF208940F04B
:103F700007002081BDE8F08130B50C4600210189A1
:103F8000C9B24FF6FF7505EA0325154325432943BA
:103F9000018130BD2DE9F04105460E461746984691
:103FA000002443463A4631462846FFF7E5FF2C8970
:103FB0004FF6F870044044F007044FF68F70044049
:103FC00044F070042C81BDE8F081F0B504460D4644
:103FD00016461F463B46324629462046FFF7CCFF91
:103FE000208940F480402081F0BD018582827047A5
:103FF0000A46002101884FF68F7319401143018052
:104000007047F0B50C4615461E46002100220023DD
:104010000189028B038C4FF6F877394021434FF624
:10402000FC473A4040F201173A434FF6DD773B40F8
:104030004FF6FF7707EA06172F433B4301810283C0
:104040000384F0BD0A460021018B4FF68F7319409F
:104050001143018370470A460021018B48F6FF7324
:1040600019404FF6FF7303EA022319430183704797
:104070000A460021818B4FF68F73194011438183CB
:1040800070470A460021818B48F6FF7319404FF6AE
:10409000FF7303EA022319438183704721B1028829
:1040A00042F08002028004E002884FF67F731A40DB
:1040B0000280704721B1828842F00402828004E0CD
:1040C00082884FF6FB731A408280704721B1828844
:1040D00042F00802828004E082884FF6F7731A40AB
:1040E0008280704721B1828842F00102828004E020
:1040F00082884FF6FE731A40828070470A4600217C
:10410000018B4FF6F77319401143018370470A463C
:104110000021018B4FF2FF7319404FF6FF7303EA42
:1041200002231943018370470A460021818B4FF611
:10413000F77319401143818370470A460021818B30
:104140004FF2FF7319404FF6FF7303EA022319433E
:10415000818370470A460021018B4FF6FB7319409B
:104160001143018370470A460021018B4FF6FF334C
:1041700019404FF6FF7303EA022319430183704786
:104180000A460021818B4FF6FB731940114381834E
:1041900070470A460021818B4FF6FF3319404FF6D6
:1041A000FF7303EA02231943818370470A46002103
:1041B000018B4FF67F7319401143018370470A4604
:1041C0000021018BC1F30E014FF6FF7303EA0223B6
:1041D0001943018370470A460021818B4FF67F7394
:1041E00019401143818370470A460021818BC1F336
:1041F0000E014FF6FF7303EA0223194381837047D0
:104200000A460021018C4FF6FD73194011430184C9
:1042100070470A460021018C4FF6F773194011438D
:10422000018470470A460021018C4FF6DF73194064
:104230004FF6FF7303EA02131943018470470A46DD
:104240000021018C4FF67F7319404FF6FF7303EA8C
:1042500002131943018470470A460021018C4FF66E
:10426000FF5319404FF6FF7303EA022319430184F9
:1042700070470A460021018C4FF2FF7319404FF638
:10428000FF7303EA02231943018470470A460021A1
:10429000018C4DF6FF7319404FF6FF7303EA0233AA
:1042A00019430184704730B5002301248C40A3B228
:1042B000048C9C430484048C02FA01F5ADB22C43B7
:1042C000048430BD30B5002304248C40A3B2048C98
:1042D0009C430484048C02FA01F5ADB22C4304849F
:1042E00030BD70B503460020002418461830012563
:1042F0008D40ACB21D8CA5431D8409B1082909D19C
:1043000000EB6100056825F0700505600568154340
:1043100005600EE00D1FC5F34E052844056825F421
:10432000E045056005684FF6FF7606EA022635434C
:10433000056070BD21B1028842F00202028004E0F3
:1043400002884FF6FD731A400280704721B102883F
:1043500042F00402028004E002884FF6FB731A4028
:104360000280704721B1828842F08002828004E09E
:1043700082884FF67F731A408280704702884FF61A
:10438000F7731A40028002880A43028070478288CD
:104390004FF68F731A40828082880A43828070476A
:1043A00002894FF6F8731A40028102890A4302819A
:1043B000704702894FF67F731A40028102890A43CF
:1043C000028170478184704781857047818670477C
:1043D0000187704781877047A0F8401070470288B6
:1043E0004FF6FF431A40028002880A43028070475A
:1043F0000146888E70470146088F70470146888FB6
:1044000070470146B1F8400070470146888C7047FC
:104410000146088D704702460020138A0B400BB1FD
:10442000012000E000207047CA430282704730B587
:104430000246002000230024158A05EA010395891D
:1044400005EA010413B10CB1012000E0002030BDE9
:10445000CA4302827047000010B501210807FEF729
:1044600010FB00214FF08050FEF70BFB10BD2A49D6
:104470000862704728490861704701460020274AB2
:10448000106820F0E0000843106070472249A03116
:104490000860704710B502460020204B186820F0D5
:1044A0000300104318601E4B1B6843F004031C4CB0
:1044B0002360012901D130BF00E020BF184B1B68E9
:1044C00023F00403164C236010BD1448006840F02C
:1044D0000400124908600846006840F002000860C5
:1044E0000F48006840F004000D49086000BF00BF9D
:1044F00030BF704701460020084A52680A400AB19E
:10450000012000E0002070470449096841EA800169
:10451000024A11607047000000000E420070004027
:1045200010ED00E001460020FE4A106800F038005F
:10453000084310607047FB49096821F00801F94AF7
:10454000116011460968014311607047F549096817
:1045500021F01001F34A116011460968014311600E
:104560007047F148EF494860F04848607047EE48AE
:10457000EC494860ED4848607047EA48006940F0FF
:104580008000E84908617047E648006940F0800013
:10459000E449086170470420E249C96801F001015B
:1045A00009B101200EE0DF49C96801F0040109B139
:1045B000022007E0DB49C96801F0100109B10320BE
:1045C00000E00420704700B502460423FFF7E3FF34
:1045D000034603E0FFF7DFFF0346521E012B01D124
:1045E000002AF7D102B90523184600BD30B50446AC
:1045F00004254FF43020FFF7E6FF0546042D17D1C0
:10460000C848006940F00200C64908610846446194
:10461000006940F0400008614FF43020FFF7D3FFFD
:104620000546C048006941F6FD710840BD49086172
:10463000284630BD10B504244FF43020FFF7C3FFE7
:104640000446042C16D1B748006940F00400B5496F
:1046500008610846006940F0400008614FF43020CE
:10466000FFF7B1FF0446AF48006941F6FB7108400F
:10467000AC490861204610BD00B502460423FFF78F
:104680008AFF034603E0FFF786FF0346521E012B15
:1046900001D1002AF7D102B90523184600BD10B593
:1046A00004244FF43020FFF7E7FF0446042C16D112
:1046B0009C48006940F004009A4908610846006976
:1046C00040F0400008614FF43020FFF7D5FF04466A
:1046D0009448006941F6FB71084092490861204600
:1046E00010BD00208F49C96901F0020109B1012004
:1046F00000E00020704730B5A5250424FFF7F1FF46
:1047000000B100254FF43020FFF75DFF0446042C74
:104710003AD18548834988608448886008460069A2
:1047200040F0200008610846006940F04000086140
:104730004FF43020FFF747FF0446042C1BD1794883
:10474000006941F6DF710840764908610846006952
:1047500040F01000086176480580E002FFF733FF63
:104760000446052C10D06F48006941F6EF710840EF
:104770006C49086108E0052C06D06A48006941F6DA
:10478000EF71084067490861204630BD78B506469C
:104790000C46042500200090E802FFF714FF0546B0
:1047A000042D24D15F48006940F001005D49086193
:1047B0003480E802FFF707FF0546042D10D1B01C36
:1047C0000090200C00990880E802FFF7FCFE0546E7
:1047D0005448006941F6FE7108405249086106E0FC
:1047E0005048006941F6FE7108404E49086128466C
:1047F00078BD70B504460D460426F002FFF7E3FECF
:104800000646042E11D14748006940F00100454991
:1048100008612580F002FFF7D6FE06464148006990
:1048200041F6FE7108403F490861304670BD70B5E1
:1048300005460E460424E002FFF7C5FE0446042C9C
:1048400017D1394837498860384888600846006978
:1048500040F0100008612E80E002FFF7B4FE04462D
:10486000052C06D02F48006941F6EF7108402D490C
:104870000861204670BD2DE9F04304464FF6FF76EF
:104880003746B046B1460425E443E6B2C4F30727F1
:10489000C4F307484FEA1469E802FFF794FE05469F
:1048A000042D49D120481F49886020488860084667
:1048B000006940F010000861FF2E06D01C48083047
:1048C0000680E802FFF77FFE0546042D08D1FF2F82
:1048D00006D017480A300780E802FFF774FE054645
:1048E000042D0AD1B8F1FF0F07D011480C30A0F801
:1048F0000080E802FFF767FE0546042D0AD1B9F1F2
:10490000FF0F07D00A480E30A0F80090E802FFF72A
:104910005AFE0546052D0FD00248006941F6EF7199
:10492000084007E00020024023016745AB89EFCD36
:1049300000F8FF1F664908612846BDE8F08330B5DE
:10494000054604244FF43020FFF73DFE0446042CB6
:1049500041D160485E4988605F48886008460069C8
:1049600040F0200008610846006940F040000861FE
:104970004FF43020FFF727FE0446042C22D1544880
:10498000006941F6DF710840514908610846006935
:1049900040F0100008611DB100205049088002E07D
:1049A000A5204E4908804FF43020FFF70CFE044646
:1049B000052C10D04648006941F6EF710840444983
:1049C000086108E0052C06D04148006941F6DF7116
:1049D00008403F490861204630BDF0B505460E4607
:1049E000174604243B483A4988603B488860E00207
:1049F000FFF7E9FD0446042C19D13548006940F061
:104A000010003349086147F0F80030432843334928
:104A1000891C0880E002FFF7D6FD0446052C06D06D
:104A20002B48006941F6EF7108402949086120468A
:104A3000F0BD2748C069800870472548006A704764
:104A400000202349096801F0200109B1012000E09C
:104A50000020704729B11E4A126902431C4B1A619B
:104A600004E01B4A12698243194B1A6170470146E0
:104A70000020012908D1164AD26902F001020AB1C8
:104A8000012008E0002006E0114AD2680A400AB17D
:104A9000012000E0002070470D49C86070470420E5
:104AA0000B49C96801F0010109B101200EE0084974
:104AB000C96801F0040109B1022007E00449C9688E
:104AC00001F0100109B1032000E00420704700004C
:104AD0000020024023016745AB89EFCD00F8FF1F9E
:104AE00010B58CB004461E230BAA03A9204600F083
:104AF000AFFE0090009810B101200CB010BD9DF8E1
:104B00002C00044400200B900EE040489DF82C201F
:104B100050F8221003A800F003FE00B908E09DF849
:104B20002C00401CC0B20B909DF82C000728ECD341
:104B300000BF9DF82C00072863D2DFE800F00405D1
:104B40003C5E6564630000BF31A001F07FF831A0D6
:104B500001F07CF83FA001F079F84EA001F076F862
:104B60005CA001F073F86BA001F070F879A001F07F
:104B70006DF886A001F06AF88BA001F067F890A0AC
:104B800001F064F894A001F061F899A001F05EF8DA
:104B90009EA001F05BF8A4A001F058F8B0A001F0CD
:104BA00055F8BDA001F052F8C8A001F04FF8D4A00C
:104BB00001F04CF89AE216A001F048F8E0A001F0EC
:104BC00045F800200B900EE0ED4800689DF82C2081
:104BD00000EBC2004168EBA001F038F89DF82C0012
:104BE000401CC0B20B90E648007D9DF82C10884216
:104BF000EADC07A001F02AF878E205A001F026F827
:104C0000C4E171E245E219E2ECE100007400002029
:104C10000D0A00002D2D2D2D2D2D2D2D2D2D2D2D61
:104C20002D2D2D2D2D2D2D2D2D2D2D2D55534D4132
:104C300052542056332E312D2D2D2D2D2D2D2D2D31
:104C40002D2D2D2D2D2D2D2D2D2D2D2D2D2D2D20A1
:104C50000D0A00002020202055534D415254CAC750
:104C6000D3C9414C49454E54454BBFAAB7A2B5C420
:104C7000D2BBB8F6C1E9C7C9B5C4B4AEBFDAB5F79F
:104C8000CAD4BBA5BDBBD7E9BCFE2CCDA8B9FD20BD
:104C90000D0A0000CBFC2CC4E3BFC9D2D4CDA8B907
:104CA000FDB4AEBFDAD6FACAD6B5F7D3C3B3CCD00B
:104CB000F2C0EFC3E6B5C4C8CEBACEBAAFCAFD2CB7
:104CC000B2A2D6B4D0D02ED2F2B4CB2CC4E3BFC99A
:104CD0000D0A0000D2D4CBE6D2E2B8FCB8C4BAAF19
:104CE000CAFDB5C4CAE4C8EBB2CECAFD28D6A7B384
:104CF000D6CAFDD7D62831302F3136BDF8D6C629D1
:104D0000A1A2D7D6B7FBB4AEA1A2BAAFCAFDC8EB79
:104D10000D0A0000BFDAB5D8D6B7B5C8D7F7CEAA06
:104D2000B2CECAFD292CB5A5B8F6BAAFCAFDD7EEEA
:104D3000B6E0D6A7B3D63130B8F6CAE4C8EBB2CEE7
:104D4000CAFD2CB2A2D6A7B3D6BAAFCAFDB7B5205A
:104D50000D0A0000BBD8D6B5CFD4CABE2ED0C2D45F
:104D6000F6B2CECAFDCFD4CABEBDF8D6C6C9E8D603
:104D7000C3B9A6C4DC2CD0C2D4F6BDF8D6C6D7AA17
:104D8000BBBBB9A6C4DC2E0D0A000000BCBCCAF532
:104D9000D6A7B3D63A7777772E6F70656E6564764F
:104DA0002E636F6D0D0A000055534D415254D3D000
:104DB00037B8F6CFB5CDB3C3FCC1EE3A0D0A00004B
:104DC0003F3A202020202020BBF1C8A1B0EFD6FA26
:104DD000D0C5CFA20D0A000068656C703A20202073
:104DE000BBF1C8A1B0EFD6FAD0C5CFA20D0A000022
:104DF0006C6973743A202020BFC9D3C3B5C4BAAF5D
:104E0000CAFDC1D0B1ED0D0A0A00000069643A2064
:104E100020202020BFC9D3C3BAAFCAFDB5C44944BE
:104E2000C1D0B1ED0D0A0A006865783A2020202033
:104E3000B2CECAFD3136BDF8D6C6CFD4CABE2CBA62
:104E4000F3B8FABFD5B8F12BCAFDD7D6BCB4D6B4E7
:104E5000D0D0BDF8D6C6D7AABBBB0D0A0A00000049
:104E60006465633A20202020B2CECAFD3130BDF8FF
:104E7000D6C6CFD4CABE2CBAF3B8FABFD5B8F12B78
:104E8000CAFDD7D6BCB4D6B4D0D0BDF8D6C6D7AA42
:104E9000BBBB0D0A0A00000072756E74696D653A3D
:104EA000312CBFAAC6F4BAAFCAFDD4CBD0D0BCC691
:104EB000CAB13B302CB9D8B1D5BAAFCAFDD4CBD02A
:104EC000D0BCC6CAB13B0D0A0A000000C7EBB0B4A3
:104ED000D5D5B3CCD0F2B1E0D0B4B8F1CABDCAE4F4
:104EE000C8EBBAAFCAFDC3FBBCB0B2CECAFDB2A21A
:104EF000D2D4BBD8B3B5BCFCBDE1CAF82E0D0A00B4
:104F00002D2D2D2D2D2D2D2D2D2D2D2D2D2D2D2DD1
:104F10002D2D2D2D2D2D2D2D2D2D414C49454E5412
:104F2000454B2D2D2D2D2D2D2D2D2D2D2D2D2D2D7B
:104F30002D2D2D2D2D2D2D2D2D2D2D200D0A00004B
:104F40002D2D2D2D2D2D2D2D2D2D2D2D2D2D2D2D91
:104F50002D2D2D2D2D2D2D2D2DBAAFCAFDC7E5B52B
:104F6000A52D2D2D2D2D2D2D2D2D2D2D2D2D2D2DF9
:104F70002D2D2D2D2D2D2D2D2D2D2D2D200D0A00DE
:104F8000B800002025730D0A00000000F1A000F019
:104F90005DFE00200B901AE0FE4909689DF82C2068
:104FA00001EBC20101AB02AA486803A900F076FC3C
:104FB000F84800689DF82C1050F8312003A9F6A09D
:104FC00000F044FE9DF82C00401CC0B20B90F1484C
:104FD000007D9DF82C108842DEDCAFF2CC3000F072
:104FE00035FE83E0AFF2D83000F030FE0BAA03A903
:104FF000204600F02FFD9DF82C00C8B9694603A893
:1050000000F0C1FB0B909DF82C0020B9E7A000999F
:1050100000F01CFE0EE09DF82C00042801D00220B8
:105020006BE5E5A000F012FE0120DA49C87501E049
:10503000022062E5DFA000F009FE57E0DDA000F0ED
:1050400005FE0BAA03A9204600F004FD9DF82C00E4
:10505000C8B9694603A800F096FB0B909DF82C0098
:1050600020B9DAA0009900F0F1FD0EE09DF82C00C7
:10507000042801D0022040E5D7A000F0E7FD002081
:10508000C449C87501E0022037E5CAA000F0DEFD82
:105090002CE0C8A000F0DAFD0BAA03A9204600F01E
:1050A000D9FC9DF82C00C8B9694603A800F06BFB39
:1050B0000B909DF82C0078B9B649009881F8EC0067
:1050C000084690F8EC0018B1C8A000F0BFFD07E05A
:1050D000CDA000F0BBFD03E002200EE502200CE5B0
:1050E000B4A000F0B3FD01E0012006E500BF002000
:1050F00003E5CC48008820F00100CA4908804FF63B
:10510000FF70C8491C3108800020C649143108804E
:10511000A049C1F8F0007047C248008800F00100C3
:1051200040B19C48D0F8F0004FF6FF71084499490F
:10513000C1F8F0009748D0F8F000BA491431098856
:1051400008449449C1F8F0000846D0F8F0007047D0
:1051500010B5B448008800F0010058B18D490869C5
:1051600080470020AF49143108804FF47A70AD4970
:105170001C310880AB48008820F00100A949088054
:1051800010BD7FB505460C4601210420FDF75FFCEC
:10519000ADF80850ADF804400020ADF80A00ADF8B5
:1051A000060001A99F481038FEF71CFB012241218F
:1051B0009C481038FEF78DFE1E208DF8000003205D
:1051C0008DF801008DF8020001208DF8030068467B
:1051D000FDF79DFE012193481038FEF75FFE7FBD6D
:1051E00010B5044604EBC40000EB04100122C2EB2E
:1051F000800081B24FF47A70FFF7C3FF0120654948
:10520000C87510BD30B595B0054613AB12AA09A9F3
:10521000284600F043FB044614B1204615B030BDCB
:105220000020149026E05B4909689DF8502001EBAE
:10523000C20113AB11AA486801A900F02FFB044674
:105240000CB12046EAE709A901A800F069FA60B9A3
:105250009DF844009DF84810884201DD0220DDE7FA
:105260009DF850004B4988750AE09DF85000401C9D
:10527000C0B214904748007D9DF850108842D2DC9F
:1052800000BF4448007D9DF85010884201D10420A1
:10529000C4E714A9284600F04EFC04460CB1204691
:1052A000BCE79DF850003B4948750020B6E72DE962
:1052B000F0419AB000263748847D007DA04202DC90
:1052C0001AB0BDE8F0813349096801EBC40106ABAF
:1052D00007AA486808A900F0E1FA08A952A000F05E
:1052E000B5FC0025BAE02B48008B0121A9400840FD
:1052F000D8B122214EA000F0A9FC284600F00EFCF7
:1053000024492431471839464AA000F09FFC222145
:1053100047A000F09BFC284600F000FC1D4924310A
:10532000084410A941F825008EE0284600F0F6FB5D
:1053300018492431085810A941F825001548C07DA6
:1053400030B910A850F825103BA000F07FFC7BE09E
:1053500074E000002D2D2D2D2D2D2D2D2D2D2D2DDD
:105360002D2D2D2D2D2D2D2D2D2D2D2D2DBAAFCAC1
:10537000FD204944202D2D2D2D2D2D2D2D2D2D2D74
:105380002D2D2D2D2D2D2D2D2D2D2D2D2D2D2D2D4D
:10539000200D0A00B800002025732069642069737D
:1053A0003A0D0A3058253038580D0A004845583A09
:1053B000305825580D0A00003136BDF8D6C6B2CE99
:1053C000CAFDCFD4CABE210D0A0000004445433AAD
:1053D000256C750D0A0000003130BDF8D6C6B2CE7E
:1053E000CAFDCFD4CABE210D0A00000052756E203E
:1053F00054696D652043616C63756C6174696F6E8F
:10540000204F4E0D0A00000052756E2054696D65E4
:105410002043616C63756C6174696F6E204F464602
:105420000D0A0000100800400D0A25732800000036
:105430002563000025730000256C750010A850F846
:10544000251095A000F002FC9DF81C00401EA8420B
:1054500002D093A000F0FAFB681CC5B29DF81C00B6
:105460008542FFF640AF8FA000F0F0FBFFF741FE52
:105470008D48407D0B280DD2DFE800F0060D151E8B
:1054800027323F4E5F7287008749096851F8340020
:105490008047064690E0844A126852F8341010980B
:1054A0008847064688E0804B1B6853F83420DDE9C6
:1054B0001001904706467FE07B4F3F6857F8343035
:1054C00010A807C89847064676E0DFF8DCC1DCF88C
:1054D00000C05CF8347010A80FC8B84706466BE0EF
:1054E0001498DFF8C4C10090DCF800C05CF8347098
:1054F00010A80FC8B84706465EE0DDE91401DFF8E2
:10550000A8C1CDE90001DCF800C05CF8347010A837
:105510000FC8B84706464FE0DDE914121698DFF8C9
:1055200088C1CDE900120290DCF800C05CF834704C
:1055300010A80FC8B84706463EE0DDE91423DDE9B0
:105540001610DFF864C1CDE90023CDE90210DCF8C4
:1055500000C05CF8347010A80FC8B84706462BE0AE
:10556000DDE9163218991598CDE9023204910190BF
:105570001498DFF834C10090DCF800C05CF8347097
:1055800010A80FC8B847064616E0DDE91623DDE986
:105590001810CDE90223CDE90410DDE91401DFF88C
:1055A00008C1CDE90001DCF800C05CF8347010A837
:1055B0000FC8B847064600BF00BFFFF7ADFD9DF816
:1055C000180001280CD13848C07D20B9314637A0D9
:1055D00000F03CFB07E0314636A000F037FB02E06C
:1055E00033A000F033FB304890F8EC0088B12E482F
:1055F000D0F8F0000A21B0FBF1F201FB12072A48B3
:10560000D0F8F000B0FBF1F83A4641462CA000F08B
:105610001DFB00BF54E670B53148008800F400401F
:10562000002833D02E48057800202E4948551E48C2
:1056300081682C48884704461CB91B49C8688047C4
:1056400021E02848FFF74CFA0546012D00D02C46F2
:10565000CCB1012C06D0022C08D0032C0AD0042C8B
:1056600010D10BE020A000F0F1FA0BE021A000F037
:10567000EDFA07E022A000F0E9FA03E023A000F031
:10568000E5FA00BF00BF00201549088070BD014643
:1056900008687047016070473058255800000000C6
:1056A0002C00000029000000B80000203D256C758A
:1056B0003B0D0A003D305825583B0D0A0000000004
:1056C00046756E6374696F6E2052756E2054696DF5
:1056D000653A25642E2531646D730D0A00000000C3
:1056E0005C000020B60D0020BAAFCAFDB4EDCEF3C9
:1056F000210D0A00B2CECAFDB4EDCEF3210D0A0091
:10570000B2CECAFDCCABB6E0210D0A00CEB4D5D2E4
:10571000B5BDC6A5C5E4B5C4BAAFCAFD210D0A0022
:1057200002460AE010780B78984201D001207047B9
:10573000107800B902E0521C491CF3E700BF0020BA
:10574000F5E706E002780A70027802B902E0401C30
:10575000491CF7E700BF70470146002005E00A78C2
:1057600002B903E0421CD0B2491CF8E700BF704701
:1057700010B50246012000E050430B00A1F10104E6
:10578000E1B2F9D110BD2DE9F04307460E460025E0
:105790004FF00A083C46002030601FE0207839288E
:1057A00002DC207830280ADA2078462802DC2078CB
:1057B000412804DA2078582809D1012D07D1207812
:1057C000412801DB4FF01008681CC5B205E02078C5
:1057D00000B904E00120BDE8F083641CDEE700BFEF
:1057E0003C46B8F1100F0FD1032D01DA0220F2E789
:1057F0002078302806D16078582803D1A41CA81E30
:10580000C5B204E00320E6E70DB90420E3E71BE09E
:105810000DB1681EC5B22078392806DC2078302802
:1058200003DB2078A0F1300902E02078A0F13709ED
:1058300029464046FFF79CFF316809FB00103060A5
:10584000641C207800B900E0E2E700BF0020C2E756
:1058500010B50446002010700BE020780870641C1E
:10586000491C1078401C10701078984201DB012010
:1058700010BD2078202802D020780028EDD100200B
:10588000087000BFF4E70146491C00E0491C087895
:10589000202801D10029F9D1087870472DE9FF4F60
:1058A00085B080468946002700200490039001209F
:1058B00002904FF0000B002544461DE02078202880
:1058C00016D005F07F00052812DA0DB945F08005E5
:1058D00005F07F00042803D120782A2800D00EE0AC
:1058E000207805F07F010DF80100681CC5B202E0C8
:1058F000852D00D103E0641C20780028DED100BF94
:105900008DB1002005F07F010DF80100CBA16846A4
:10591000FFF706FF18B900210898017002E0012185
:105920000898017000254FF0000A444614E0641CFA
:105930000AF1010000F0FF0A2078202802D0207828
:105940002A2809D12046FFF79EFF0646282E03D0BD
:105950002A2E01D0CDF810A02078282802D0207857
:105960000028E4D14446049810B10498401C044433
:105970004FF0000A002654E0207810B94FF0010AD9
:1059800050E02078282803D116B9781CC7B213E05C
:105990002078292808D13EB917B1781EC7B201E096
:1059A0004FF0010A47B93DE02078222804D10EB912
:1059B000012000E00020064647B9207820282FD09B
:1059C000207889F8000009F1010929E020782C28C5
:1059D00004D101200290681CC5B214E02078202870
:1059E00011D0207828280ED04DB9BBF1050F06DA6A
:1059F00020780DF80B000BF1010000F0FF0B02986E
:105A0000401CC0B20290012F0AD10298022807D18F
:105A10000298401CC0B202900398401CC0B2039090
:105A2000641CA9E700BF0398012809D100200DF8E4
:105A30000B0082A16846FFF773FE08B900200390AF
:105A4000079903980870002089F80000504609B0B3
:105A5000BDE8F08FF0B50346154600200022002671
:105A6000002455E01F782C2F01D104B901221F78A2
:105A7000292F01D01F780FB904B94AE0002E34D184
:105A80001F78302F02DB1F78392F11DD1F78612F2F
:105A900002DB1F78662F0BDD1F78412F02DB1F789A
:105AA000462F05DD1F78582F02D01F78782F0CD194
:105AB00002B12EE01F78612F03DB1F78203F0F70AB
:105AC00001E01F780F70491C1FE01F78222F04D1BE
:105AD00002B11EE00126012417E01F78202F14D008
